:100000000C9438010C9469010C9469010C946901F9
:100010000C9469010C9469010C9469010C946901B8
:100020000C9469010C9469010C9469010C946901A8
:100030000C9469010C9469010C9469010C94690198
:100040000C9469010C9469010C9469010C94690188
:100050000C9469010C9469010C9469010C94580387
:100060000C9469010C94CC030C94A2030C946901C8
:100070000C9469010C9469010C9469010C94690158
:100080000C9469010C9469010C9469010C94690148
:100090000C9469010C9469010C9469010C94690138
:1000A0000C9469010C9469010C9469010C94690128
:1000B0000C9469010C9469010C9469010C94690118
:1000C0000C9469010C9469010C9469010C94690108
:1000D0000C9469010C9469010C9469010C946901F8
:1000E0000C946901B901BC01AB01AF01B301F3018B
:1000F000C001C401CA01CE01D201D801DC01E00176
:10010000F301E601EA01EE010C94E6010C94D8013A
:100110000C94CA010C94E0010C948B020C944602DE
:100120000C94CE010C9454020C94AB010C94DC01A1
:100130000C94AF010C94D2010C94EA010C948B0541
:100140000C94F3010C9407020C94C0010C94B301BD
:100150000C94BC010C94B9010C94C4010C94D2020F
:100160000C9432020C94EE0100000A0B02090C0DF3
:100170000E0807030401000000000000000000005A
:10018000000000000000000000000000000000006F
:10019000000000001211100000000000000000002C
:1001A000000000000000000000000000000000004F
:1001B0002200250028002B002E003100340002010F
:1001C0000000050108010B010000210024002700A8
:1001D0002A002D0030003300010100000401070156
:1001E0000A010505050507050808080802020202BC
:1001F0000A0A0808040404040101010101010101C3
:100200000303030303030303040707070C0C0C0C8D
:100210000C0C0C0C02020202060606060606060676
:100220000B0B0B0B0B0B0B0B010210202008081003
:100230002040102040800201020108040201010256
:10024000040810204080804020100804020180042F
:10025000020180402010080402010804020101028A
:1002600004081020408001020408102040808B0503
:1002700011241FBECFEFD1E2DEBFCDBF00E00CBF27
:1002800013E0A0E0B2E0EEE8FBE000E00BBF02C04C
:1002900007900D92AE36B107D9F724E0AEE6B3E091
:1002A00001C01D92A431B207E1F711E0C8E3D1E02B
:1002B00000E006C021970109802FFE010E94B805C9
:1002C000C733D10780E00807A9F70E9402040C9405
:1002D000C5050C94000090E0FC01E85DFD4F249101
:1002E000FC01EE51FE4F8491882399F090E0880F35
:1002F000991FFC01E853FE4FA591B491FC01E25512
:10030000FE4F859194918FB7F894EC91E22BEC938A
:100310008FBF0895362F90E0FC01E859FE4F4491BD
:10032000FC01E85DFD4F2491FC01EE51FE4F9491DC
:10033000992309F46BC0442309F455C050E0FA0135
:100340003197E231F10508F04EC08827EE58FF4F93
:100350008F4F0C94B805809180008F7707C08091F3
:1003600080008F7D03C080918000877F8093800014
:100370003AC084B58F7702C084B58F7D84BD33C009
:100380008091B0008F7703C08091B0008F7D809303
:10039000B00029C0809190008F7707C080919000B5
:1003A0008F7D03C080919000877F809390001BC059
:1003B0008091A0008F7707C08091A0008F7D03C03F
:1003C0008091A000877F8093A0000DC080912001C4
:1003D0008F7707C0809120018F7D03C0809120011D
:1003E000877F80932001E92FF0E0EE0FFF1FE25599
:1003F000FE4FA591B4918FB7F894EC91311103C0E1
:1004000020952E2301C02E2B2C938FBF0895CF92C1
:10041000DF92EF92FF920F931F93CF93DF936C01C4
:100420007A018B01C0E0D0E0CE15DF0589F0D8015C
:100430006D918D01D601ED91FC910190F081E02D3F
:10044000C6011995892B11F47E0102C02196ECCFCB
:10045000C701DF91CF911F910F91FF90EF90DF9037
:10046000CF900895FC01918D828D981761F0828D57
:10047000DF01A80FB11D5D968C91928D9F5F9F73D8
:10048000928F90E008958FEF9FEF0895FC01918D7A
:10049000828D981731F0828DE80FF11D858D90E0E7
:1004A00008958FEF9FEF0895FC01918D228D892F84
:1004B00090E0805C9F4F821B91098F73992708956C
:1004C0008EE693E00E94540221E0892B09F420E09B
:1004D000822F0895FC01848DDF01A80FB11DA35A5E
:1004E000BF4F2C91848D90E001968F739927848F54
:1004F000A689B7892C93A089B1898C9180648C934B
:10050000938D848D981306C00288F389E02D808135
:100510008F7D80830895EF92FF920F931F93CF9367
:10052000DF93EC0181E0888F9B8D8C8D981305C043
:10053000E889F989808185FD24C0F62E0B8D10E0B5
:100540000F5F1F4F0F731127E02E8C8DE8120CC028
:100550000FB607FCFACFE889F989808185FFF5CFCE
:10056000CE010E946A02F1CF8B8DFE01E80FF11DD2
:10057000E35AFF4FF0820B8FEA89FB89808180620A
:1005800007C0EE89FF896083E889F98980818064EA
:10059000808381E090E0DF91CF911F910F91FF90D8
:1005A000EF900895CF93DF93EC01888D8823C9F0F5
:1005B000EA89FB89808185FD05C0A889B9898C916C
:1005C00086FD0FC00FB607FCF5CF808185FFF2CF07
:1005D000A889B9898C9185FFEDCFCE010E946A026E
:1005E000E7CFDF91CF91089580E090E0892B21F053
:1005F0000E946002811125C080E090E0892B41F0CB
:1006000080E090E0892B21F00E94000081111CC045
:1006100080E090E0892B41F080E090E0892B21F090
:100620000E940000811113C080E090E0892BA1F0AE
:1006300080E090E0892B81F00E94000081110AC0C7
:1006400008950E940000D8CF0E940000E1CF0E94D0
:100650000000EACF0C9400000895CF92DF92EF9251
:10066000FF920F931F93CF93DF936B01EC017C01FB
:1006700080E2E80EF11C00E010E88881229661E03B
:1006800098012C213D21232B09F060E00E948A0172
:1006900016950795CE15DF0581F7DF91CF911F9154
:1006A0000F91FF90EF90DF90CF9008950E94C005CA
:1006B0001F920F920FB60F9211242F933F938F9397
:1006C0009F93AF93BF938091100490911104A091D8
:1006D0001204B091130430910F0423E0230F2D373F
:1006E00020F40196A11DB11D05C026E8230F029636
:1006F000A11DB11D20930F04809310049093110449
:10070000A0931204B093130480910B0490910C04F5
:10071000A0910D04B0910E040196A11DB11D80930E
:100720000B0490930C04A0930D04B0930E04BF919E
:10073000AF919F918F913F912F910F900FBE0F908E
:100740001F9018951F920F920FB60F9211240BB69F
:100750000F922F933F934F935F936F937F938F935A
:100760009F93AF93BF93EF93FF938EE693E00E9426
:100770006A02FF91EF91BF91AF919F918F917F910D
:100780006F915F914F913F912F910F900BBE0F9002
:100790000FBE0F901F9018951F920F920FB60F92D9
:1007A00011240BB60F922F938F939F93EF93FF9388
:1007B000E0917E03F0917F038081E0918403F091CA
:1007C000850382FD12C09081809187038F5F8F73B4
:1007D00020918803821751F0E0918703F0E0E259FD
:1007E000FC4F958F8093870301C08081FF91EF912B
:1007F0009F918F912F910F900BBE0F900FBE0F9076
:100800001F901895789484B5826084BD84B581600A
:1008100084BD85B5826085BD85B5816085BD8091CB
:100820006E00816080936E00109281008091810043
:10083000826080938100809181008160809381003B
:10084000809180008160809380008091B1008460FD
:100850008093B1008091B00081608093B00080915E
:1008600091008260809391008091910081608093DB
:100870009100809190008160809390008091A10010
:1008800082608093A1008091A10081608093A1008B
:100890008091A00081608093A000809121018260FE
:1008A00080932101809121018160809321018091B9
:1008B000200181608093200180917A008460809380
:1008C0007A0080917A00826080937A0080917A0029
:1008D000816080937A0080917A00806880937A00AA
:1008E0001092C100CCE1D2E0888122960E946B0177
:1008F00082E0CE32D807C1F7CEE4D2E00EE212E0B9
:10090000888122960E946B01D8018C910E5F1F4F47
:100910000E946B01B2E0CE36DB0791F7E0917E03D7
:10092000F0917F0382E08083E0917A03F0917B0372
:100930001082E0917C03F0917D0380E1808310922E
:100940008603E0918203F091830386E08083E09147
:100950008003F0918103808180618083E091800336
:10096000F0918103808188608083E0918003F09121
:100970008103808180688083E0918003F09181030E
:1009800080818F7D8083F8ECBF2E0AE010E0A0E22A
:10099000AA2ECCE1D2E0E2E0EE2EE2E0FE2EC12C67
:1009A000D12CE4E0CE16D10429F04601F5E08F0EFB
:1009B000911C03C074E0872E912CD701ED917D012D
:1009C000F0E0EE0FFF1FE259FD4F608171818EE470
:1009D00092E00E942D03F401EE5FFD4FE081F0E014
:1009E000EE0FFF1FE259FD4F608171818EE292E0B0
:1009F0000E942D036880229661E0862D0E948A0164
:100A0000F401EE0FFF1FE45EFD4F708061E0872D63
:100A10000E948A018090000290900102B89CF0012F
:100A2000B99CF00D1124E230F10538F0EE0FFF1FF4
:100A3000EE0FFF1F35973197F1F760E0862D0E948A
:100A40008A0160E0872D0E948A01980128193909DE
:100A5000B29EC001B39E900D11248230910538F0F2
:100A6000880F991F880F991F05970197F1F7BFEF1E
:100A7000CB1ADB0AE5E0CE16D10409F092CF8EE660
:100A800093E00E945402892B09F43FC0C0E0D0E0FB
:100A90008EE693E00E9432029C01215031092F37EB
:100AA000310560F48A30910519F1C930D10504F59A
:100AB000FE01EE5FFD4F808321961AC08F3A9105AB
:100AC00039F18B3A9105A1F48EE693E00E9432024F
:100AD0009C01215031092A30310520F49093010204
:100AE00080930002805D809302028FEF9FEF02C02F
:100AF000009711F00A9761F6CE5FDD4FCE0182506C
:100B00009240099714F4A992F9CF0E94F40241CFC0
:100B1000C0E0D0E0EFCFEEE6F3E01382128288EE81
:100B200093E0A0E0B0E084839583A683B78380E15F
:100B300092E09183808385EC90E09587848784ECB4
:100B400090E09787868780EC90E0918B808B81EC9A
:100B500090E0938B828B82EC90E0958B848B86EC7B
:100B600090E0978B868B118E128E138E148E0895C3
:100B7000EE0FFF1F881F8BBF0790F691E02D199491
:0E0B800081E090E0F8940C94C505F894FFCF46
:100B8E000A002A2A2A2A2A2A2A2A2A0000000000D3
:100B9E008B020702540232024602D2020C000D00F2
:100BAE000B000A00160018001700190035000E0081
:100BBE001300150044003E0043003F0011004200A8
:100BCE00120010000F001400450041004000070005
:100BDE00020004003C0038003D00370006003A00D9
:100BEE0005000900080003003B0039003600FFFF36
:100BFE00FFFFFFFFFFFFFFFFFFFFFFFFFFFFFFFFF7
:100C0E000000FFFFFFFFFFFFFFFFFFFFFFFFFFFFE4
:100C1E00FFFFFFFFFFFFFFFFFFFFFFFFFFFFFFFFD6
:100C2E00FFFFFFFFFFFFFFFFFFFFFFFFFFFF0000C4
:100C3E0018481020D23CD2DDDB952DDC08000C00CC
:100C4E002100FF00D2000100C0000008090000FFD3
:100C5E000030C0EEC0FCC031C0DDC0DF00F0C0FF10
:100C6E00C0FD400401800C00C00C210008C842F7F2
:100C7E00C0F352FC00CFC03EC0CFC0C340DFC03374
:100C8E0012CC12C88C03000F2833243300FFC0E3AC
:100C9E0004FFC4E3C0DD12C0003F090305332D007D
:100CAE002A0009CC008B240000740500000C2000E3
:100CBE00FFFFFFFFFFFFFFFFFFFFFFFFFFFFFFFF36
:100CCE00FFFFFFFFFFFFFFFF0008FFFFFFFFFFFF1C
:100CDE000800FFFFFFFFFFFF0100FFFFFFFFFFFF09
:0E0CEE00FFFFFFFF924412005288C022FFFF5A
:00000001FF
